:104000005542200135D0085A82450011314000390F
:104010003F4000000F9308249242001120012F839B
:104020009F4F64400011F8233F4000000F93072486
:104030009242001120011F83CF430011F92332D097
:10404000F000FD3F304062400E4232C20343034362
:104050003EF25F4301204F4330414F93012432D25F
:0440600030410013D8
:10FFE00044404440444044404440444044404440F1
:10FFF0004440444044404440444044404440004025
:0400000300004000B9
:00000001FF
